{
  "contractName": "ZombieHelper",
  "abi": [
    {
      "constant": false,
      "inputs": [
        {
          "name": "_zombieId",
          "type": "uint256"
        },
        {
          "name": "_kittyId",
          "type": "uint256"
        }
      ],
      "name": "feedOnKitty",
      "outputs": [],
      "payable": false,
      "stateMutability": "nonpayable",
      "type": "function"
    },
    {
      "constant": true,
      "inputs": [
        {
          "name": "",
          "type": "uint256"
        }
      ],
      "name": "zombies",
      "outputs": [
        {
          "name": "name",
          "type": "string"
        },
        {
          "name": "dna",
          "type": "uint256"
        },
        {
          "name": "level",
          "type": "uint32"
        },
        {
          "name": "readyTime",
          "type": "uint32"
        },
        {
          "name": "winCount",
          "type": "uint16"
        },
        {
          "name": "lossCount",
          "type": "uint16"
        }
      ],
      "payable": false,
      "stateMutability": "view",
      "type": "function"
    },
    {
      "constant": true,
      "inputs": [
        {
          "name": "",
          "type": "uint256"
        }
      ],
      "name": "zombieToOwner",
      "outputs": [
        {
          "name": "",
          "type": "address"
        }
      ],
      "payable": false,
      "stateMutability": "view",
      "type": "function"
    },
    {
      "constant": false,
      "inputs": [
        {
          "name": "_address",
          "type": "address"
        }
      ],
      "name": "setKittyContractAddress",
      "outputs": [],
      "payable": false,
      "stateMutability": "nonpayable",
      "type": "function"
    },
    {
      "constant": false,
      "inputs": [],
      "name": "renounceOwnership",
      "outputs": [],
      "payable": false,
      "stateMutability": "nonpayable",
      "type": "function"
    },
    {
      "constant": false,
      "inputs": [
        {
          "name": "_name",
          "type": "string"
        }
      ],
      "name": "createRandomZombie",
      "outputs": [],
      "payable": false,
      "stateMutability": "nonpayable",
      "type": "function"
    },
    {
      "constant": true,
      "inputs": [],
      "name": "owner",
      "outputs": [
        {
          "name": "",
          "type": "address"
        }
      ],
      "payable": false,
      "stateMutability": "view",
      "type": "function"
    },
    {
      "constant": true,
      "inputs": [],
      "name": "isOwner",
      "outputs": [
        {
          "name": "",
          "type": "bool"
        }
      ],
      "payable": false,
      "stateMutability": "view",
      "type": "function"
    },
    {
      "constant": true,
      "inputs": [
        {
          "name": "",
          "type": "uint256"
        }
      ],
      "name": "zombiePrice",
      "outputs": [
        {
          "name": "",
          "type": "uint256"
        }
      ],
      "payable": false,
      "stateMutability": "view",
      "type": "function"
    },
    {
      "constant": false,
      "inputs": [
        {
          "name": "newOwner",
          "type": "address"
        }
      ],
      "name": "transferOwnership",
      "outputs": [],
      "payable": false,
      "stateMutability": "nonpayable",
      "type": "function"
    },
    {
      "anonymous": false,
      "inputs": [
        {
          "indexed": false,
          "name": "zombieId",
          "type": "uint256"
        },
        {
          "indexed": false,
          "name": "price",
          "type": "uint256"
        }
      ],
      "name": "ZombieListed",
      "type": "event"
    },
    {
      "anonymous": false,
      "inputs": [
        {
          "indexed": false,
          "name": "zombieId",
          "type": "uint256"
        }
      ],
      "name": "ZombieDelisted",
      "type": "event"
    },
    {
      "anonymous": false,
      "inputs": [
        {
          "indexed": false,
          "name": "zombieId",
          "type": "uint256"
        },
        {
          "indexed": false,
          "name": "from",
          "type": "address"
        },
        {
          "indexed": false,
          "name": "to",
          "type": "address"
        },
        {
          "indexed": false,
          "name": "price",
          "type": "uint256"
        }
      ],
      "name": "ZombieSold",
      "type": "event"
    },
    {
      "anonymous": false,
      "inputs": [
        {
          "indexed": false,
          "name": "zombieId",
          "type": "uint256"
        },
        {
          "indexed": false,
          "name": "victory",
          "type": "bool"
        },
        {
          "indexed": false,
          "name": "wildLevel",
          "type": "uint256"
        }
      ],
      "name": "BattleOutcome",
      "type": "event"
    },
    {
      "anonymous": false,
      "inputs": [
        {
          "indexed": false,
          "name": "zombieId",
          "type": "uint256"
        },
        {
          "indexed": false,
          "name": "name",
          "type": "string"
        },
        {
          "indexed": false,
          "name": "dna",
          "type": "uint256"
        }
      ],
      "name": "NewZombie",
      "type": "event"
    },
    {
      "anonymous": false,
      "inputs": [
        {
          "indexed": true,
          "name": "previousOwner",
          "type": "address"
        },
        {
          "indexed": true,
          "name": "newOwner",
          "type": "address"
        }
      ],
      "name": "OwnershipTransferred",
      "type": "event"
    },
    {
      "constant": false,
      "inputs": [],
      "name": "withdraw",
      "outputs": [],
      "payable": false,
      "stateMutability": "nonpayable",
      "type": "function"
    },
    {
      "constant": false,
      "inputs": [
        {
          "name": "_fee",
          "type": "uint256"
        }
      ],
      "name": "setLevelUpFee",
      "outputs": [],
      "payable": false,
      "stateMutability": "nonpayable",
      "type": "function"
    },
    {
      "constant": false,
      "inputs": [
        {
          "name": "_zombieId",
          "type": "uint256"
        }
      ],
      "name": "levelUp",
      "outputs": [],
      "payable": true,
      "stateMutability": "payable",
      "type": "function"
    },
    {
      "constant": false,
      "inputs": [
        {
          "name": "_zombieId",
          "type": "uint256"
        },
        {
          "name": "_newName",
          "type": "string"
        }
      ],
      "name": "changeName",
      "outputs": [],
      "payable": false,
      "stateMutability": "nonpayable",
      "type": "function"
    },
    {
      "constant": false,
      "inputs": [
        {
          "name": "_zombieId",
          "type": "uint256"
        },
        {
          "name": "_newDna",
          "type": "uint256"
        }
      ],
      "name": "changeDna",
      "outputs": [],
      "payable": true,
      "stateMutability": "payable",
      "type": "function"
    },
    {
      "constant": false,
      "inputs": [
        {
          "name": "_id1",
          "type": "uint256"
        },
        {
          "name": "_id2",
          "type": "uint256"
        },
        {
          "name": "_name",
          "type": "string"
        }
      ],
      "name": "fuseZombies",
      "outputs": [],
      "payable": true,
      "stateMutability": "payable",
      "type": "function"
    },
    {
      "constant": false,
      "inputs": [
        {
          "name": "_zombieId",
          "type": "uint256"
        },
        {
          "name": "_price",
          "type": "uint256"
        }
      ],
      "name": "listForSale",
      "outputs": [],
      "payable": false,
      "stateMutability": "nonpayable",
      "type": "function"
    },
    {
      "constant": false,
      "inputs": [
        {
          "name": "_zombieId",
          "type": "uint256"
        }
      ],
      "name": "delistZombie",
      "outputs": [],
      "payable": false,
      "stateMutability": "nonpayable",
      "type": "function"
    },
    {
      "constant": false,
      "inputs": [
        {
          "name": "_zombieId",
          "type": "uint256"
        }
      ],
      "name": "buyZombie",
      "outputs": [],
      "payable": true,
      "stateMutability": "payable",
      "type": "function"
    },
    {
      "constant": true,
      "inputs": [],
      "name": "getListedZombies",
      "outputs": [
        {
          "name": "",
          "type": "uint256[]"
        }
      ],
      "payable": false,
      "stateMutability": "view",
      "type": "function"
    },
    {
      "constant": true,
      "inputs": [
        {
          "name": "_owner",
          "type": "address"
        }
      ],
      "name": "getZombiesByOwner",
      "outputs": [
        {
          "name": "",
          "type": "uint256[]"
        }
      ],
      "payable": false,
      "stateMutability": "view",
      "type": "function"
    },
    {
      "constant": false,
      "inputs": [
        {
          "name": "_zombieId",
          "type": "uint256"
        }
      ],
      "name": "battleWildZombie",
      "outputs": [],
      "payable": false,
      "stateMutability": "nonpayable",
      "type": "function"
    }
  ],
  "bytecode": "0x60806040526010600155600154600a0a600255603c60035566038d7ea4c680006008556000600a55336000806101000a81548173ffffffffffffffffffffffffffffffffffffffff021916908373ffffffffffffffffffffffffffffffffffffffff1602179055506000809054906101000a900473ffffffffffffffffffffffffffffffffffffffff1673ffffffffffffffffffffffffffffffffffffffff16600073ffffffffffffffffffffffffffffffffffffffff167f8be0079c531659141344cd1fd0a4f28419497f9722a3daafe3b4186f6b6457e060405160405180910390a361309e806100f26000396000f300608060405260043610610128576000357c0100000000000000000000000000000000000000000000000000000000900463ffffffff16806302c0e1db1461012d5780630ce90ec21461016f57806315e07c971461018f57806317a7f4cc146101bc5780632052465e146101f35780633ccfd60b146102e45780634412e104146102fb578063528b7b8f146103935780635f4623f1146104005780635faf288014610443578063715018a61461046d5780637bff0a01146104845780637cb3c4a5146104ed5780638da5cb5b146105595780638f32d59b146105b0578063b92e2d74146105df578063c39cbef1146105ff578063ccf670f814610644578063d351d95514610671578063e041f5561461069e578063e80d7fec146106df578063f2fde38b14610716575b600080fd5b61016d6004803603810190808035906020019092919080359060200190929190803590602001908201803590602001919091929391929390505050610759565b005b61018d60048036038101908080359060200190929190505050610e8b565b005b34801561019b57600080fd5b506101ba60048036038101908080359060200190929190505050610f26565b005b3480156101c857600080fd5b506101f16004803603810190808035906020019092919080359060200190929190505050611073565b005b3480156101ff57600080fd5b5061021e6004803603810190808035906020019092919050505061121c565b60405180806020018781526020018663ffffffff1663ffffffff1681526020018563ffffffff1663ffffffff1681526020018461ffff1661ffff1681526020018361ffff1661ffff168152602001828103825288818151815260200191508051906020019080838360005b838110156102a4578082015181840152602081019050610289565b50505050905090810190601f1680156102d15780820380516001836020036101000a031916815260200191505b5097505050505050505060405180910390f35b3480156102f057600080fd5b506102f961133b565b005b34801561030757600080fd5b5061033c600480360381019080803573ffffffffffffffffffffffffffffffffffffffff1690602001909291905050506113bb565b6040518080602001828103825283818151815260200191508051906020019060200280838360005b8381101561037f578082015181840152602081019050610364565b505050509050019250505060405180910390f35b34801561039f57600080fd5b506103be600480360381019080803590602001909291905050506114ed565b604051808273ffffffffffffffffffffffffffffffffffffffff1673ffffffffffffffffffffffffffffffffffffffff16815260200191505060405180910390f35b34801561040c57600080fd5b50610441600480360381019080803573ffffffffffffffffffffffffffffffffffffffff169060200190929190505050611520565b005b61046b6004803603810190808035906020019092919080359060200190929190505050611577565b005b34801561047957600080fd5b506104826116d8565b005b34801561049057600080fd5b506104eb600480360381019080803590602001908201803590602001908080601f01602080910402602001604051908101604052809392919081815260200183838082843782019150505050505091929192905050506117aa565b005b3480156104f957600080fd5b506105026117d6565b6040518080602001828103825283818151815260200191508051906020019060200280838360005b8381101561054557808201518184015260208101905061052a565b505050509050019250505060405180910390f35b34801561056557600080fd5b5061056e6119a2565b604051808273ffffffffffffffffffffffffffffffffffffffff1673ffffffffffffffffffffffffffffffffffffffff16815260200191505060405180910390f35b3480156105bc57600080fd5b506105c56119cb565b604051808215151515815260200191505060405180910390f35b6105fd60048036038101908080359060200190929190505050611a22565b005b34801561060b57600080fd5b5061064260048036038101908080359060200190929190803590602001908201803590602001919091929391929390505050611f86565b005b34801561065057600080fd5b5061066f60048036038101908080359060200190929190505050612074565b005b34801561067d57600080fd5b5061069c60048036038101908080359060200190929190505050612091565b005b3480156106aa57600080fd5b506106c96004803603810190808035906020019092919050505061237c565b6040518082815260200191505060405180910390f35b3480156106eb57600080fd5b506107146004803603810190808035906020019092919080359060200190929190505050612394565b005b34801561072257600080fd5b50610757600480360381019080803573ffffffffffffffffffffffffffffffffffffffff1690602001909291905050506124d6565b005b600080600080876005600082815260200190815260200160002060009054906101000a900473ffffffffffffffffffffffffffffffffffffffff1673ffffffffffffffffffffffffffffffffffffffff163373ffffffffffffffffffffffffffffffffffffffff161415156107cd57600080fd5b3373ffffffffffffffffffffffffffffffffffffffff16600560008a815260200190815260200160002060009054906101000a900473ffffffffffffffffffffffffffffffffffffffff1673ffffffffffffffffffffffffffffffffffffffff161415156108a3576040517f08c379a000000000000000000000000000000000000000000000000000000000815260040180806020018281038252601a8152602001807f4e6f74206f776e6572206f66207365636f6e64207a6f6d62696500000000000081525060200191505060405180910390fd5b87891415151561091b576040517f08c379a00000000000000000000000000000000000000000000000000000000081526004018080602001828103825260208152602001807f43616e6e6f7420667573652061207a6f6d626965207769746820697473656c6681525060200191505060405180910390fd5b60048881548110151561092a57fe5b906000526020600020906003020160020160009054906101000a900463ffffffff1663ffffffff1660048a81548110151561096157fe5b906000526020600020906003020160020160009054906101000a900463ffffffff1663ffffffff160194506109a1600854866124f590919063ffffffff16565b3410151515610a18576040517f08c379a000000000000000000000000000000000000000000000000000000000815260040180806020018281038252601b8152602001807f496e73756666696369656e742045544820666f7220667573696f6e000000000081525060200191505060405180910390fd5b6002610a6d60048a815481101515610a2c57fe5b90600052602060002090600302016001015460048c815481101515610a4d57fe5b90600052602060002090600302016001015461253090919063ffffffff16565b811515610a7657fe5b049350606484811515610a8557fe5b0684039350610a94898961254e565b92506000600560008b815260200190815260200160002060006101000a81548173ffffffffffffffffffffffffffffffffffffffff021916908373ffffffffffffffffffffffffffffffffffffffff1602179055506000600560008a815260200190815260200160002060006101000a81548173ffffffffffffffffffffffffffffffffffffffff021916908373ffffffffffffffffffffffffffffffffffffffff160217905550610b8f6002600660003373ffffffffffffffffffffffffffffffffffffffff1673ffffffffffffffffffffffffffffffffffffffff1681526020019081526020016000205461261690919063ffffffff16565b600660003373ffffffffffffffffffffffffffffffffffffffff1673ffffffffffffffffffffffffffffffffffffffff168152602001908152602001600020819055506001600460c0604051908101604052808a8a8080601f01602080910402602001604051908101604052809392919081815260200183838082843782019150505050505081526020018781526020018663ffffffff1681526020014263ffffffff168152602001600061ffff168152602001600061ffff16815250908060018154018082558091505090600182039060005260206000209060030201600090919290919091506000820151816000019080519060200190610c93929190612f4d565b506020820151816001015560408201518160020160006101000a81548163ffffffff021916908363ffffffff16021790555060608201518160020160046101000a81548163ffffffff021916908363ffffffff16021790555060808201518160020160086101000a81548161ffff021916908361ffff16021790555060a082015181600201600a6101000a81548161ffff021916908361ffff1602179055505050039150336005600084815260200190815260200160002060006101000a81548173ffffffffffffffffffffffffffffffffffffffff021916908373ffffffffffffffffffffffffffffffffffffffff160217905550610ddc6001600660003373ffffffffffffffffffffffffffffffffffffffff1673ffffffffffffffffffffffffffffffffffffffff1681526020019081526020016000205461253090919063ffffffff16565b600660003373ffffffffffffffffffffffffffffffffffffffff1673ffffffffffffffffffffffffffffffffffffffff168152602001908152602001600020819055507f88f026aacbbecc90c18411df4b1185fd8d9be2470f1962f192bf84a27d0704b7828888876040518085815260200180602001838152602001828103825285858281815260200192508082843782019150509550505050505060405180910390a1505050505050505050565b60085434141515610e9b57600080fd5b610ee56001600483815481101515610eaf57fe5b906000526020600020906003020160020160009054906101000a900463ffffffff1663ffffffff1661262f90919063ffffffff16565b600482815481101515610ef457fe5b906000526020600020906003020160020160006101000a81548163ffffffff021916908363ffffffff16021790555050565b806005600082815260200190815260200160002060009054906101000a900473ffffffffffffffffffffffffffffffffffffffff1673ffffffffffffffffffffffffffffffffffffffff163373ffffffffffffffffffffffffffffffffffffffff16141515610f9457600080fd5b6000600960008481526020019081526020016000205411151561101f576040517f08c379a000000000000000000000000000000000000000000000000000000000815260040180806020018281038252600a8152602001807f4e6f74206c69737465640000000000000000000000000000000000000000000081525060200191505060405180910390fd5b600060096000848152602001908152602001600020819055507f8b99877104ce694806d96430327da98a5fc370ed75bb3679b12404dc5e8731aa826040518082815260200191505060405180910390a15050565b6000600760009054906101000a900473ffffffffffffffffffffffffffffffffffffffff1673ffffffffffffffffffffffffffffffffffffffff1663e98b7f4d836040518263ffffffff167c01000000000000000000000000000000000000000000000000000000000281526004018082815260200191505061014060405180830381600087803b15801561110757600080fd5b505af115801561111b573d6000803e3d6000fd5b505050506040513d61014081101561113257600080fd5b81019080805190602001909291908051906020019092919080519060200190929190805190602001909291908051906020019092919080519060200190929190805190602001909291908051906020019092919080519060200190929190805190602001909291905050509091929394959697985090919293949596975090919293949596509091929394955090919293945090919293509091925090915090508091505061121783826040805190810160405280600581526020017f6b69747479000000000000000000000000000000000000000000000000000000815250612659565b505050565b60048181548110151561122b57fe5b9060005260206000209060030201600091509050806000018054600181600116156101000203166002900480601f0160208091040260200160405190810160405280929190818152602001828054600181600116156101000203166002900480156112d75780601f106112ac576101008083540402835291602001916112d7565b820191906000526020600020905b8154815290600101906020018083116112ba57829003601f168201915b5050505050908060010154908060020160009054906101000a900463ffffffff16908060020160049054906101000a900463ffffffff16908060020160089054906101000a900461ffff169080600201600a9054906101000a900461ffff16905086565b60006113456119cb565b151561135057600080fd5b6113586119a2565b90508073ffffffffffffffffffffffffffffffffffffffff166108fc3073ffffffffffffffffffffffffffffffffffffffff16319081150290604051600060405180830381858888f193505050501580156113b7573d6000803e3d6000fd5b5050565b606080600080600660008673ffffffffffffffffffffffffffffffffffffffff1673ffffffffffffffffffffffffffffffffffffffff1681526020019081526020016000205460405190808252806020026020018201604052801561142f5781602001602082028038833980820191505090505b50925060009150600090505b6004805490508110156114e2578473ffffffffffffffffffffffffffffffffffffffff166005600083815260200190815260200160002060009054906101000a900473ffffffffffffffffffffffffffffffffffffffff1673ffffffffffffffffffffffffffffffffffffffff1614156114d5578083838151811015156114be57fe5b906020019060200201818152505081806001019250505b808060010191505061143b565b829350505050919050565b60056020528060005260406000206000915054906101000a900473ffffffffffffffffffffffffffffffffffffffff1681565b6115286119cb565b151561153357600080fd5b80600760006101000a81548173ffffffffffffffffffffffffffffffffffffffff021916908373ffffffffffffffffffffffffffffffffffffffff16021790555050565b6005828160048281548110151561158a57fe5b906000526020600020906003020160020160009054906101000a900463ffffffff1663ffffffff16101515156115bf57600080fd5b836005600082815260200190815260200160002060009054906101000a900473ffffffffffffffffffffffffffffffffffffffff1673ffffffffffffffffffffffffffffffffffffffff163373ffffffffffffffffffffffffffffffffffffffff1614151561162d57600080fd5b662386f26fc1000034101515156116ac576040517f08c379a000000000000000000000000000000000000000000000000000000000815260040180806020018281038252601c8152602001807f4d7573742073656e6420302e30312045544820746f206d75746174650000000081525060200191505060405180910390fd5b836004868154811015156116bc57fe5b9060005260206000209060030201600101819055505050505050565b6116e06119cb565b15156116eb57600080fd5b600073ffffffffffffffffffffffffffffffffffffffff166000809054906101000a900473ffffffffffffffffffffffffffffffffffffffff1673ffffffffffffffffffffffffffffffffffffffff167f8be0079c531659141344cd1fd0a4f28419497f9722a3daafe3b4186f6b6457e060405160405180910390a360008060006101000a81548173ffffffffffffffffffffffffffffffffffffffff021916908373ffffffffffffffffffffffffffffffffffffffff160217905550565b60006117b582612906565b90506064818115156117c357fe5b06810390506117d282826129f4565b5050565b6060600080606060008060009450600093505b60048054905084101561189457600060096000868152602001908152602001600020541180156118795750600073ffffffffffffffffffffffffffffffffffffffff166005600086815260200190815260200160002060009054906101000a900473ffffffffffffffffffffffffffffffffffffffff1673ffffffffffffffffffffffffffffffffffffffff1614155b156118875784806001019550505b83806001019450506117e9565b846040519080825280602002602001820160405280156118c35781602001602082028038833980820191505090505b50925060009150600090505b600480549050811015611997576000600960008381526020019081526020016000205411801561195f5750600073ffffffffffffffffffffffffffffffffffffffff166005600083815260200190815260200160002060009054906101000a900473ffffffffffffffffffffffffffffffffffffffff1673ffffffffffffffffffffffffffffffffffffffff1614155b1561198a5780838381518110151561197357fe5b906020019060200201818152505081806001019250505b80806001019150506118cf565b829550505050505090565b60008060009054906101000a900473ffffffffffffffffffffffffffffffffffffffff16905090565b60008060009054906101000a900473ffffffffffffffffffffffffffffffffffffffff1673ffffffffffffffffffffffffffffffffffffffff163373ffffffffffffffffffffffffffffffffffffffff1614905090565b60008060096000848152602001908152602001600020549150600082111515611ab3576040517f08c379a000000000000000000000000000000000000000000000000000000000815260040180806020018281038252600c8152602001807f4e6f7420666f722073616c65000000000000000000000000000000000000000081525060200191505060405180910390fd5b813410151515611b2b576040517f08c379a00000000000000000000000000000000000000000000000000000000081526004018080602001828103825260108152602001807f496e73756666696369656e74204554480000000000000000000000000000000081525060200191505060405180910390fd5b6005600084815260200190815260200160002060009054906101000a900473ffffffffffffffffffffffffffffffffffffffff1690503373ffffffffffffffffffffffffffffffffffffffff168173ffffffffffffffffffffffffffffffffffffffff1614151515611c05576040517f08c379a00000000000000000000000000000000000000000000000000000000081526004018080602001828103825260158152602001807f43616e6e6f7420627579206f776e207a6f6d626965000000000000000000000081525060200191505060405180910390fd5b600073ffffffffffffffffffffffffffffffffffffffff168173ffffffffffffffffffffffffffffffffffffffff1614151515611caa576040517f08c379a000000000000000000000000000000000000000000000000000000000815260040180806020018281038252600e8152602001807f496e76616c6964207a6f6d62696500000000000000000000000000000000000081525060200191505060405180910390fd5b60006009600085815260200190815260200160002081905550336005600085815260200190815260200160002060006101000a81548173ffffffffffffffffffffffffffffffffffffffff021916908373ffffffffffffffffffffffffffffffffffffffff160217905550611d686001600660008473ffffffffffffffffffffffffffffffffffffffff1673ffffffffffffffffffffffffffffffffffffffff1681526020019081526020016000205461261690919063ffffffff16565b600660008373ffffffffffffffffffffffffffffffffffffffff1673ffffffffffffffffffffffffffffffffffffffff16815260200190815260200160002081905550611dfe6001600660003373ffffffffffffffffffffffffffffffffffffffff1673ffffffffffffffffffffffffffffffffffffffff1681526020019081526020016000205461253090919063ffffffff16565b600660003373ffffffffffffffffffffffffffffffffffffffff1673ffffffffffffffffffffffffffffffffffffffff168152602001908152602001600020819055508073ffffffffffffffffffffffffffffffffffffffff166108fc839081150290604051600060405180830381858888f19350505050158015611e87573d6000803e3d6000fd5b5081341115611eda573373ffffffffffffffffffffffffffffffffffffffff166108fc8334039081150290604051600060405180830381858888f19350505050158015611ed8573d6000803e3d6000fd5b505b7fa52a24d026f5b34fed175ff62d1bcaa546727ad17353c5cb027974a0d2f91bf483823385604051808581526020018473ffffffffffffffffffffffffffffffffffffffff1673ffffffffffffffffffffffffffffffffffffffff1681526020018373ffffffffffffffffffffffffffffffffffffffff1673ffffffffffffffffffffffffffffffffffffffff16815260200182815260200194505050505060405180910390a1505050565b60028381600482815481101515611f9957fe5b906000526020600020906003020160020160009054906101000a900463ffffffff1663ffffffff1610151515611fce57600080fd5b846005600082815260200190815260200160002060009054906101000a900473ffffffffffffffffffffffffffffffffffffffff1673ffffffffffffffffffffffffffffffffffffffff163373ffffffffffffffffffffffffffffffffffffffff1614151561203c57600080fd5b848460048881548110151561204d57fe5b9060005260206000209060030201600001919061206b929190612fcd565b50505050505050565b61207c6119cb565b151561208757600080fd5b8060088190555050565b600080826005600082815260200190815260200160002060009054906101000a900473ffffffffffffffffffffffffffffffffffffffff1673ffffffffffffffffffffffffffffffffffffffff163373ffffffffffffffffffffffffffffffffffffffff1614151561210257600080fd5b834263ffffffff1660048281548110151561211957fe5b906000526020600020906003020160020160049054906101000a900463ffffffff1663ffffffff16111515156121b7576040517f08c379a00000000000000000000000000000000000000000000000000000000081526004018080602001828103825260178152602001807f596f7572207a6f6d6269652069732072657374696e672100000000000000000081525060200191505060405180910390fd5b6004858154811015156121c657fe5b9060005260206000209060030201935060016121fe60028660020160009054906101000a900463ffffffff160163ffffffff16612cc3565b019250828460020160009054906101000a900463ffffffff1663ffffffff1611156122e85783600201600881819054906101000a900461ffff168092919060010191906101000a81548161ffff021916908361ffff1602179055505083600201600081819054906101000a900463ffffffff168092919060010191906101000a81548163ffffffff021916908363ffffffff160217905550507fea1c5f978731169479cada3ea9581289327fbcecc51a74837ff68c6586aa2828856001856040518084815260200183151515158152602001828152602001935050505060405180910390a161236c565b83600201600a81819054906101000a900461ffff168092919060010191906101000a81548161ffff021916908361ffff160217905550507fea1c5f978731169479cada3ea9581289327fbcecc51a74837ff68c6586aa2828856000856040518084815260200183151515158152602001828152602001935050505060405180910390a15b61237585612dbc565b5050505050565b60096020528060005260406000206000915090505481565b816005600082815260200190815260200160002060009054906101000a900473ffffffffffffffffffffffffffffffffffffffff1673ffffffffffffffffffffffffffffffffffffffff163373ffffffffffffffffffffffffffffffffffffffff1614151561240257600080fd5b60008211151561247a576040517f08c379a00000000000000000000000000000000000000000000000000000000081526004018080602001828103825260118152602001807f5072696365206d757374206265203e203000000000000000000000000000000081525060200191505060405180910390fd5b8160096000858152602001908152602001600020819055507f0f04c30e10f2059fd9928304afd97413d6a29635c89216c0bcde35853cc3fbfd8383604051808381526020018281526020019250505060405180910390a1505050565b6124de6119cb565b15156124e957600080fd5b6124f281612e02565b50565b600080600084141561250a5760009150612529565b828402905082848281151561251b57fe5b0414151561252557fe5b8091505b5092915050565b600080828401905083811015151561254457fe5b8091505092915050565b600080600080600060048781548110151561256557fe5b906000526020600020906003020160020160009054906101000a900463ffffffff16935060048681548110151561259857fe5b906000526020600020906003020160020160009054906101000a900463ffffffff1692508263ffffffff168463ffffffff16106125d557826125d7565b835b91508263ffffffff168463ffffffff16116125f257826125f4565b835b905061260860018263ffffffff1601612cc3565b820194505050505092915050565b600082821115151561262457fe5b818303905092915050565b60008082840190508363ffffffff168163ffffffff161015151561264f57fe5b8091505092915050565b600080846005600082815260200190815260200160002060009054906101000a900473ffffffffffffffffffffffffffffffffffffffff1673ffffffffffffffffffffffffffffffffffffffff163373ffffffffffffffffffffffffffffffffffffffff161415156126ca57600080fd5b6004868154811015156126d957fe5b906000526020600020906003020192506126f283612efc565b15156126fd57600080fd5b6002548581151561270a57fe5b06945060028584600101540181151561271f57fe5b04915060405160200180807f6b6974747900000000000000000000000000000000000000000000000000000081525060050190506040516020818303038152906040526040518082805190602001908083835b6020831015156127975780518252602082019150602081019050602083039250612772565b6001836020036101000a038019825116818451168082178552505050505050905001915050604051809103902060001916846040516020018082805190602001908083835b60208310151561280157805182526020820191506020810190506020830392506127dc565b6001836020036101000a0380198251168184511680821785525050505050509050019150506040516020818303038152906040526040518082805190602001908083835b60208310151561286a5780518252602082019150602081019050602083039250612845565b6001836020036101000a03801982511681845116808217855250505050505090500191505060405180910390206000191614156128b65760636064838115156128af57fe5b0683030191505b6128f56040805190810160405280600681526020017f4e6f4e616d650000000000000000000000000000000000000000000000000000815250836129f4565b6128fe83612f23565b505050505050565b600080826040516020018082805190602001908083835b602083101515612942578051825260208201915060208101905060208303925061291d565b6001836020036101000a0380198251168184511680821785525050505050509050019150506040516020818303038152906040526040518082805190602001908083835b6020831015156129ab5780518252602082019150602081019050602083039250612986565b6001836020036101000a0380198251168184511680821785525050505050509050019150506040518091039020600190049050600254818115156129eb57fe5b06915050919050565b60006001600460c060405190810160405280868152602001858152602001600163ffffffff1681526020014263ffffffff168152602001600061ffff168152602001600061ffff16815250908060018154018082558091505090600182039060005260206000209060030201600090919290919091506000820151816000019080519060200190612a86929190612f4d565b506020820151816001015560408201518160020160006101000a81548163ffffffff021916908363ffffffff16021790555060608201518160020160046101000a81548163ffffffff021916908363ffffffff16021790555060808201518160020160086101000a81548161ffff021916908361ffff16021790555060a082015181600201600a6101000a81548161ffff021916908361ffff1602179055505050039050336005600083815260200190815260200160002060006101000a81548173ffffffffffffffffffffffffffffffffffffffff021916908373ffffffffffffffffffffffffffffffffffffffff160217905550612bcf6001600660003373ffffffffffffffffffffffffffffffffffffffff1673ffffffffffffffffffffffffffffffffffffffff1681526020019081526020016000205461253090919063ffffffff16565b600660003373ffffffffffffffffffffffffffffffffffffffff1673ffffffffffffffffffffffffffffffffffffffff168152602001908152602001600020819055507f88f026aacbbecc90c18411df4b1185fd8d9be2470f1962f192bf84a27d0704b78184846040518084815260200180602001838152602001828103825284818151815260200191508051906020019080838360005b83811015612c82578082015181840152602081019050612c67565b50505050905090810190601f168015612caf5780820380516001836020036101000a031916815260200191505b5094505050505060405180910390a1505050565b6000600a60008154809291906001019190505550814233600a54604051602001808481526020018373ffffffffffffffffffffffffffffffffffffffff1673ffffffffffffffffffffffffffffffffffffffff166c0100000000000000000000000002815260140182815260200193505050506040516020818303038152906040526040518082805190602001908083835b602083101515612d7a5780518252602082019150602081019050602083039250612d55565b6001836020036101000a038019825116818451168082178552505050505050905001915050604051809103902060019004811515612db457fe5b069050919050565b6003544201600482815481101515612dd057fe5b906000526020600020906003020160020160046101000a81548163ffffffff021916908363ffffffff16021790555050565b600073ffffffffffffffffffffffffffffffffffffffff168173ffffffffffffffffffffffffffffffffffffffff1614151515612e3e57600080fd5b8073ffffffffffffffffffffffffffffffffffffffff166000809054906101000a900473ffffffffffffffffffffffffffffffffffffffff1673ffffffffffffffffffffffffffffffffffffffff167f8be0079c531659141344cd1fd0a4f28419497f9722a3daafe3b4186f6b6457e060405160405180910390a3806000806101000a81548173ffffffffffffffffffffffffffffffffffffffff021916908373ffffffffffffffffffffffffffffffffffffffff16021790555050565b6000428260020160049054906101000a900463ffffffff1663ffffffff1611159050919050565b60035442018160020160046101000a81548163ffffffff021916908363ffffffff16021790555050565b828054600181600116156101000203166002900490600052602060002090601f016020900481019282601f10612f8e57805160ff1916838001178555612fbc565b82800160010185558215612fbc579182015b82811115612fbb578251825591602001919060010190612fa0565b5b509050612fc9919061304d565b5090565b828054600181600116156101000203166002900490600052602060002090601f016020900481019282601f1061300e57803560ff191683800117855561303c565b8280016001018555821561303c579182015b8281111561303b578235825591602001919060010190613020565b5b509050613049919061304d565b5090565b61306f91905b8082111561306b576000816000905550600101613053565b5090565b905600a165627a7a72305820f6c0664e38e7a96ad7dc28840e00c6988404c9a2a74b30877536dc3c3bdd36e40029",
  "source": "pragma solidity ^0.4.25;\n\nimport \"./zombiefeeding.sol\";\n\ncontract ZombieHelper is ZombieFeeding {\n\n  uint levelUpFee = 0.001 ether;\n  mapping(uint => uint) public zombiePrice;\n\n  event ZombieListed(uint zombieId, uint price);\n  event ZombieDelisted(uint zombieId);\n  event ZombieSold(uint zombieId, address from, address to, uint price);\n  event BattleOutcome(uint zombieId, bool victory, uint wildLevel);\n  modifier aboveLevel(uint _level, uint _zombieId) {\n    require(zombies[_zombieId].level >= _level);\n    _;\n  }\n\n  function withdraw() external onlyOwner {\n    address _owner = owner();\n    _owner.transfer(address(this).balance);\n  }\n\n  function setLevelUpFee(uint _fee) external onlyOwner {\n    levelUpFee = _fee;\n  }\n\n  function levelUp(uint _zombieId) external payable {\n    require(msg.value == levelUpFee);\n    zombies[_zombieId].level = zombies[_zombieId].level.add(1);\n  }\n\n  function changeName(uint _zombieId, string _newName) external aboveLevel(2, _zombieId) onlyOwnerOf(_zombieId) {\n    zombies[_zombieId].name = _newName;\n  }\n\n  function changeDna(uint _zombieId, uint _newDna) external payable aboveLevel(5, _zombieId) onlyOwnerOf(_zombieId) {\n    require(msg.value >= 0.01 ether, \"Must send 0.01 ETH to mutate\");\n    zombies[_zombieId].dna = _newDna;\n  }\n\n  function _calcFusedLevel(uint _id1, uint _id2) internal returns(uint32) {\n    uint32 lvl1 = zombies[_id1].level;\n    uint32 lvl2 = zombies[_id2].level;\n    uint32 minLvl = lvl1 < lvl2 ? lvl1 : lvl2;\n    uint32 maxLvl = lvl1 > lvl2 ? lvl1 : lvl2;\n    return minLvl + uint32(randMod(uint(maxLvl) + 1));\n  }\n\n  function fuseZombies(uint _id1, uint _id2, string _name) external payable onlyOwnerOf(_id1) {\n    require(zombieToOwner[_id2] == msg.sender, \"Not owner of second zombie\");\n    require(_id1 != _id2, \"Cannot fuse a zombie with itself\");\n    uint totalLevels = uint(zombies[_id1].level) + uint(zombies[_id2].level);\n    require(msg.value >= totalLevels.mul(levelUpFee), \"Insufficient ETH for fusion\");\n\n    uint newDna = zombies[_id1].dna.add(zombies[_id2].dna) / 2;\n    newDna = newDna - newDna % 100;\n    uint32 newLevel = _calcFusedLevel(_id1, _id2);\n\n    zombieToOwner[_id1] = address(0);\n    zombieToOwner[_id2] = address(0);\n    ownerZombieCount[msg.sender] = ownerZombieCount[msg.sender].sub(2);\n\n    uint newId = zombies.push(Zombie(_name, newDna, newLevel, uint32(now), 0, 0)) - 1;\n    zombieToOwner[newId] = msg.sender;\n    ownerZombieCount[msg.sender] = ownerZombieCount[msg.sender].add(1);\n    emit NewZombie(newId, _name, newDna);\n  }\n\n  function listForSale(uint _zombieId, uint _price) external onlyOwnerOf(_zombieId) {\n    require(_price > 0, \"Price must be > 0\");\n    zombiePrice[_zombieId] = _price;\n    emit ZombieListed(_zombieId, _price);\n  }\n\n  function delistZombie(uint _zombieId) external onlyOwnerOf(_zombieId) {\n    require(zombiePrice[_zombieId] > 0, \"Not listed\");\n    zombiePrice[_zombieId] = 0;\n    emit ZombieDelisted(_zombieId);\n  }\n\n  function buyZombie(uint _zombieId) external payable {\n    uint price = zombiePrice[_zombieId];\n    require(price > 0, \"Not for sale\");\n    require(msg.value >= price, \"Insufficient ETH\");\n    address seller = zombieToOwner[_zombieId];\n    require(seller != msg.sender, \"Cannot buy own zombie\");\n    require(seller != address(0), \"Invalid zombie\");\n    zombiePrice[_zombieId] = 0;\n    zombieToOwner[_zombieId] = msg.sender;\n    ownerZombieCount[seller] = ownerZombieCount[seller].sub(1);\n    ownerZombieCount[msg.sender] = ownerZombieCount[msg.sender].add(1);\n    seller.transfer(price);\n    if (msg.value > price) {\n      msg.sender.transfer(msg.value - price);\n    }\n    emit ZombieSold(_zombieId, seller, msg.sender, price);\n  }\n\n  function getListedZombies() external view returns(uint[]) {\n    uint count = 0;\n    for (uint i = 0; i < zombies.length; i++) {\n      if (zombiePrice[i] > 0 && zombieToOwner[i] != address(0)) count++;\n    }\n    uint[] memory result = new uint[](count);\n    uint idx = 0;\n    for (uint j = 0; j < zombies.length; j++) {\n      if (zombiePrice[j] > 0 && zombieToOwner[j] != address(0)) {\n        result[idx] = j;\n        idx++;\n      }\n    }\n    return result;\n  }\n\n  function getZombiesByOwner(address _owner) external view returns(uint[]) {\n    uint[] memory result = new uint[](ownerZombieCount[_owner]);\n    uint counter = 0;\n    for (uint i = 0; i < zombies.length; i++) {\n      if (zombieToOwner[i] == _owner) {\n        result[counter] = i;\n        counter++;\n      }\n    }\n    return result;\n  }\n\n  // --- FEATURE 4: ACTION COOLDOWN TIMERS ---\n  modifier isReady(uint _zombieId) {\n    require(zombies[_zombieId].readyTime <= uint32(now), \"Your zombie is resting!\");\n    _;\n  }\n\n  function _triggerCooldown(uint _zombieId) internal {\n    zombies[_zombieId].readyTime = uint32(now + cooldownTime);\n  }\n\n  // --- FEATURE 3: PvE BATTLE ARENA ---\n  uint randNonce = 0;\n\n  function randMod(uint _modulus) internal returns(uint) {\n    randNonce++;\n    return uint(keccak256(abi.encodePacked(now, msg.sender, randNonce))) % _modulus;\n  }\n\n  function battleWildZombie(uint _zombieId) external onlyOwnerOf(_zombieId) isReady(_zombieId) {\n    Zombie storage myZombie = zombies[_zombieId];\n    uint wildZombieLevel = randMod(myZombie.level + 2) + 1;\n\n    if (myZombie.level > wildZombieLevel) {\n      myZombie.winCount++;\n      myZombie.level++;\n      emit BattleOutcome(_zombieId, true, wildZombieLevel);\n    } else {\n      myZombie.lossCount++;\n      emit BattleOutcome(_zombieId, false, wildZombieLevel);\n    }\n    _triggerCooldown(_zombieId);\n  }\n}\n",
  "sourcePath": "C:\\D drive\\cpsc 559\\Cryptozombie demo package\\Cryptozombie demo package\\contracts\\zombiehelper.sol",
  "compiler": {
    "name": "solc",
    "version": "0.4.25+commit.59dbf8f1.Emscripten.clang"
  },
  "schemaVersion": "3.4.16",
  "updatedAt": "2026-03-16T02:48:54.511Z",
  "networkType": "ethereum",
  "devdoc": {
    "methods": {
      "isOwner()": {
        "return": "true if `msg.sender` is the owner of the contract."
      },
      "owner()": {
        "return": "the address of the owner."
      },
      "renounceOwnership()": {
        "details": "Allows the current owner to relinquish control of the contract."
      },
      "transferOwnership(address)": {
        "details": "Allows the current owner to transfer control of the contract to a newOwner.",
        "params": {
          "newOwner": "The address to transfer ownership to."
        }
      }
    }
  },
  "userdoc": {
    "methods": {
      "renounceOwnership()": {
        "notice": "Renouncing to ownership will leave the contract without an owner. It will not be possible to call the functions with the `onlyOwner` modifier anymore."
      }
    }
  }
}